:0F000E003000310032003300340035003600007E
:060CCB0001590001580070
:10099A00E4F5467592FFF591120C93120BF7120BC0
:1009AA004A120C238042C3E55794F4E556648094B6
:1009BA00814009E4F556F557F558D2C27859E6143C
:1009CA0060E424F1601824DF60DC24317020785957
:1009DA007601120A5DEF70CE7859763180C812001E
:1009EA0006785BEFF612057BE47859F680B8E4786E
:0409FA0059F680B278
:100C9300B2C2120CE7B2C2120CE7B2C2120CE7B234
:0C0CA300C2120CE7B2C2120CE7B2C2226F
:100BF7007580FFE4F59075A0FF75B0FF75C0FF53D2
:100C07008E7F438901F58A758C28C28DD28CD2A933
:0C0C1700C2C3D289D2A8D2AF75C13D2261
:0A0CF40000007F057E49DEFEDFFCF4
:010CFE0022D3
:080C6F008F518E508D4F8C4E09
:100C7700E4F552F553F554F555784E74FF120469AF
:0B0C8700EC4D4E4F6005120CF480EEA7
:010C9200223F
:0C0CE7007F117ED07D1BDDFEDEFCDFFAFD
:010CF30022DE
:03000300020B8B62
:100B8B00C0E0C0F0C083C082C0D075D000C000C030
:100B9B0001C002C003C004C005C006C00712074055
:100BAB00D007D006D005D004D003D002D001D0009E
:0B0BBB00D0D0D082D083D0F0D0E03248
:10057B00EF700A755801F556F557C2C222E558645B
:10058B00016003020695EF120487062C010639025F
:10059B00064604065314066015066D16067A1706F2
:1005AB00871806871906871A06871B06871C068776
:1005BB001D06871E06871F068720068721068722B2
:1005CB0006872306872406872506872606872706A0
:1005DB00872806872906872A06872B06872C0687F6
:1005EB002D06872E06872F06873006873106873222
:1005FB000687330687340687350687360687370620
:10060B00873806873906873A06873B06873C068775
:10061B003D06873E06873F0687400687410000065A
:10062B0095E4F556F5577BFF7A00790E8059E4F582
:10063B0056F5577BFF7A007910804CE4F556F55749
:10064B007BFF7A007912803FE4F556F5577BFF7AF2
:10065B000079148032E4F556F5577BFF7A00791652
:10066B008025E4F556F5577BFF7A0079188018E45E
:10067B00F556F5577BFF7A00791A800BE4F556F5A2
:0B068B00577BFF7A00791C120C4A22FA
:03000B00020CAF35
:100CAF00C0E0758A00758C2875C13DE558640170E8
:0C0CBF00080557E55770020556D0E032DA
:100026006C6975206572206C69750000000000001F
:10003600000000006461206B6169206C65692064C2
:1000460061000000000000006775616E2062692093
:100056006C6569206461000000000000737520640F
:1000660075207969206261690000000000000000C7
:10007600737520647520716920736869207775002F
:100086000000000073752064752077752073686919
:100096000000000000000000737520647520657282
:1000A600207368692077750000000000737520646E
:1000B6007520736869207775000000000000000055
:1000C600000000000000000000000000000000002A
:1000D600000000000000000000000000000000001A
:1000E600000000000000000000000000000000000A
:1000F60000000000000000000000000000000000FA
:100406000000000000000000000102041415161789
:1004160018191A1B1C1D1E1F2021222324252627DE
:1004260028292A2B2C2D2E2F3031323334353637CE
:0A04360038393A3B3C3D3E3F40415F
:100B4A00D2B57F057E007D007C00120C6FC2B57F96
:100B5A00057E007D007C00120C6FD2B57F057E00F9
:100B6A007D007C00120C6FC2A17F057E007D007C97
:100B7A0000120C6FD2A17F057E007D007C00020C62
:010B8A006FFB
:1007DF007F06120D0A7D357F17120CFF7F0A7E00F0
:1007EF007D007C00120C6F7F06120D0A7D037F893E
:1007FF00120CFF7F057E007D007C00120C6F7D4385
:10080F007FCF120CFF7F057E007D007C00120C6FE6
:10081F007D027FCB120CFF7D0A7F11120CFFE4FDCE
:10082F007F1E120CFF7D3F7F19120CFF7D487F1B2F
:10083F00120CFF7D1F7F1D120CFF7F0A7E007D00B3
:10084F007C00120C6F7D047FCD120CFF7F057E00A4
:10085F007D007C00120C6FE4FD7FB9120CFF7D4F01
:0C086F007FCF120CFF7DFF7F6F020CFF9B
:1009FE001207DFE4FD7FBD120CFF7D487F17120C3E
:100A0E00FF7F0A7E007D007C00120C6F7D807F3C94
:100A1E00120CFF7D077F3E120CFF7DFF7F38120CFC
:100A2E00FF7D077F3A120CFFE4FD7F40120CFF7D25
:100A3E00087F42120CFFE4FD7F44120CFF7D087FFD
:0F0A4E0046120CFF7F017E007D007C00020C6FC2
:10074000E4F545C2A87F2B120D0A785AA607E4FDEE
:100750007F29120CFFE4FD7F02120CFF785AE6306D
:10076000E4377FB2120D0AEF6421702D7FBF120DA6
:100770000AEF643570237FBA120D0A8F457E00D3CD
:10078000EF9400748094804010D3EF9404748094AC
:1007900080500678597610800478597611E4FD7FF0
:1007A0002B120CFFE4FD7F1C120CFFE4FD7F2912CD
:1007B0000CFFE4FD7F02120CFFE4FD7F2B120CFF07
:1007C000E4FD7FBA120CFFE4FD7FBC120CFF7D013B
:0E07D0007F08120CFFE4FD7F08120CFFD2A878
:0107DE0022F8
:100A5D00E4F547F548F547C3E54794057480948060
:100A6D00504012001D7F327E007D007C00120C6F05
:100A7D00120696EF700280117F0A7E007D007C00C9
:100A8D00120C6F12087BEF7010120B4A7F327E0032
:100A9D007D007C00120C6F800575480180040547B0
:040AAD0080B5AF4819
:010AB1002222
:100BC600E4F54DF54CC3E54C940A74809480501EB0
:100BD6007FB2120D0AEF64217005754D01800F7FFB
:100BE6000A7E007D007C00120C6F054C80D7AF4D4D
:010BF60022DC
:03001D000209FED7
:10087B00C2A87D437F35120CFF7D097F1C120CFF34
:10088B007D207FBD120CFF7D017F08120CFF7F01C5
:10089B007E007D007C00120C6FE4FD7F08120CFFC4
:1008AB007F017E007D007C00120C6F120BC6EF7077
:1008BB0002FF227D0B7F1C120CFF7DFF7FB2120CFF
:1008CB00FF7F017E007D007C00120C6F7D067F3761
:1008DB00120CFF7F017E007D007C00120C6F7D06E9
:1008EB007F37120CFF7F057E007D007C00120C6FA2
:1008FB007D107F29120CFFE4FD7FBD120CFFD2A8E7
:03090B007F012247
:10069600754A01E4F549C3E5499432748094804073
:1006A6000302073D120BC6EF7005F54A02073DE54A
:1006B6004990040E93FD7FC1120CFFE4FD7FC31227
:1006C6000CFF7D047F08120CFF7F017E007D007CFD
:1006D60000120C6FE4FD7F08120CFF7F017E007D87
:1006E600007C00120C6FE4F54BC3E54B9414748048
:1006F6009480502975F014E549A42426F582E5F086
:100706003400F583E582254BF582E43583F583E4F1
:1007160093FD60097F05120CFF054B80CCAD4B7F26
:10072600B9120CFF7DFF7FB2120CFF7D047F3712DA
:090736000CFF054902069CAF4AC4
:01073F002297
:050006007FC5020D0A98
:0B0CFF00908100EFF0908000EDF022EB
:0B0D0A00908100EFF0908000E0FF22DD
:070CD1000211258001100053
:100C2300759850438920AE11AF12AB07AA06E4F9B9
:100C3300F8FF7EE1FDFC120B061204598F8B8F8D9A
:070C4300D28ED2ACD2AF2229
:0E0CD900C2ACC2998F993099FDC299D2AC225B
:100C4A008B478A488949AB47AA48A9491204406098
:100C5A00130549E5497002054814F9120440FF12C8
:050C6A000CD980E2221C
:03002300020AB21C
:100AB200C0E0C0D075D008309845C2987413251094
:100AC200F8A6990510C3E510943174809480400310
:100AD200751000C3E5109403748094804021741350
:100AE2002510F8E664F8701774122510F8E664F819
:100AF200700D74112510F8E664F8700375C760D0A4
:040B0200D0D0E0323D
:0300000002090EE4
:0C090E00787FE4F6D8FD75815B02095586
:10044000BB010689828A83E0225002E722BBFE02BA
:09045000E32289828A83E49322ED
:100B0600C2D5E830E70FB2D5E4C39BFBE49AFAE41A
:100B160099F9E498F8EC30E717B2D5120B3C1204B9
:100B2600E9E4C39BFBE49AFAE499F9E498F88003B4
:100B36001204E930D50DE4C39FFFE49EFEE49DFD5B
:040B4600E49CFC220D
:0E045900C3E49FFFE49EFEE49DFDE49CFC22B4
:100467007401FF3395E0FEFDFC080808E6CF2FF680
:1004770018E6CE3EF618E6CD3DF618E6CC3CF62259
:10048700D083D082F8E4937012740193700DA3A304
:1004970093F8740193F5828883E473740293686018
:0604A700EFA3A3A380DF18
:10091A0002099AE493A3F8E493A34003F68001F250
:10092A0008DFF48029E493A3F85407240CC8C333DE
:10093A00C4540F4420C8834004F456800146F6DFAD
:10094A00E4800B0102040810204080900CCBE47E66
:10095A00019360BCA3FF543F30E509541FFEE493A2
:10096A00A360010ECF54C025E060A840B8E493A369
:10097A00FAE493A3F8E493A3C8C582C8CAC583CA94
:10098A00F0A3C8C582C8CAC583CADFE9DEE780BE4C
:010CD800001B
:1004AD0075F008758200EF2FFFEE33FECD33CDCC06
:1004BD0033CCC58233C5829BED9AEC99E582984089
:1004CD000CF582EE9BFEED9AFDEC99FC0FD5F0D666
:1004DD00E4CEFBE4CDFAE4CCF9A88222B800C1B990
:1004ED000059BA002DEC8BF084CFCECDFCE5F0CBCE
:1004FD00F97818EF2FFFEE33FEED33FDEC33FCEB07
:10050D0033FB10D703994004EB99FB0FD8E5E4F9C1
:10051D00FA227818EF2FFFEE33FEED33FDEC33FCAE
:10052D00C933C910D7059BE99A4007EC9BFCE99AA2
:10053D00F90FD8E0E4C9FAE4CCFB2275F010EF2FE7
:10054D00FFEE33FEED33FDCC33CCC833C810D707E7
:10055D009BEC9AE899400AED9BFDEC9AFCE899F822
:0E056D000FD5F0DAE4CDFBE4CCFAE4C8F922B5
:00000001FF
